{
	"data": {
		"bytecode": {
			"linkReferences": {},
			"object": "60806040526040518060600160405280602e81526020016105dd602e913960009080519060200190610032929190610045565b5034801561003f57600080fd5b50610149565b828054610051906100e8565b90600052602060002090601f01602090048101928261007357600085556100ba565b82601f1061008c57805160ff19168380011785556100ba565b828001600101855582156100ba579182015b828111156100b957825182559160200191906001019061009e565b5b5090506100c791906100cb565b5090565b5b808211156100e45760008160009055506001016100cc565b5090565b6000600282049050600182168061010057607f821691505b602082108114156101145761011361011a565b5b50919050565b7f4e487b7100000000000000000000000000000000000000000000000000000000600052602260045260246000fd5b610485806101586000396000f3fe608060405234801561001057600080fd5b50600436106100415760003560e01c806320890ff61461004657806360ac40f014610062578063d84b628a14610080575b600080fd5b610060600480360381019061005b91906102cd565b61009e565b005b61006a6100b4565b6040516100779190610353565b60405180910390f35b610088610146565b6040516100959190610353565b60405180910390f35b8181600091906100af9291906101d4565b505050565b6060600080546100c3906103c4565b80601f01602080910402602001604051908101604052809291908181526020018280546100ef906103c4565b801561013c5780601f106101115761010080835404028352916020019161013c565b820191906000526020600020905b81548152906001019060200180831161011f57829003601f168201915b5050505050905090565b60008054610153906103c4565b80601f016020809104026020016040519081016040528092919081815260200182805461017f906103c4565b80156101cc5780601f106101a1576101008083540402835291602001916101cc565b820191906000526020600020905b8154815290600101906020018083116101af57829003601f168201915b505050505081565b8280546101e0906103c4565b90600052602060002090601f0160209004810192826102025760008555610249565b82601f1061021b57803560ff1916838001178555610249565b82800160010185558215610249579182015b8281111561024857823582559160200191906001019061022d565b5b509050610256919061025a565b5090565b5b8082111561027357600081600090555060010161025b565b5090565b60008083601f84011261028d5761028c61042a565b5b8235905067ffffffffffffffff8111156102aa576102a9610425565b5b6020830191508360018202830111156102c6576102c561042f565b5b9250929050565b600080602083850312156102e4576102e3610439565b5b600083013567ffffffffffffffff81111561030257610301610434565b5b61030e85828601610277565b92509250509250929050565b600061032582610375565b61032f8185610380565b935061033f818560208601610391565b6103488161043e565b840191505092915050565b6000602082019050818103600083015261036d818461031a565b905092915050565b600081519050919050565b600082825260208201905092915050565b60005b838110156103af578082015181840152602081019050610394565b838111156103be576000848401525b50505050565b600060028204905060018216806103dc57607f821691505b602082108114156103f0576103ef6103f6565b5b50919050565b7f4e487b7100000000000000000000000000000000000000000000000000000000600052602260045260246000fd5b600080fd5b600080fd5b600080fd5b600080fd5b600080fd5b6000601f19601f830116905091905056fea264697066735822122039d178c2591a4cb8b18c8397ee662a5d4b32980fc00383ed7352b38f057095c264736f6c63430008070033516d507376364e584b6a6653566b705a38627859654d3247545055356d744c454641677839365139593144474469",
			"opcodes": "PUSH1 0x80 PUSH1 0x40 MSTORE PUSH1 0x40 MLOAD DUP1 PUSH1 0x60 ADD PUSH1 0x40 MSTORE DUP1 PUSH1 0x2E DUP2 MSTORE PUSH1 0x20 ADD PUSH2 0x5DD PUSH1 0x2E SWAP2 CODECOPY PUSH1 0x0 SWAP1 DUP1 MLOAD SWAP1 PUSH1 0x20 ADD SWAP1 PUSH2 0x32 SWAP3 SWAP2 SWAP1 PUSH2 0x45 JUMP JUMPDEST POP CALLVALUE DUP1 ISZERO PUSH2 0x3F JUMPI PUSH1 0x0 DUP1 REVERT JUMPDEST POP PUSH2 0x149 JUMP JUMPDEST DUP3 DUP1 SLOAD PUSH2 0x51 SWAP1 PUSH2 0xE8 JUMP JUMPDEST SWAP1 PUSH1 0x0 MSTORE PUSH1 0x20 PUSH1 0x0 KECCAK256 SWAP1 PUSH1 0x1F ADD PUSH1 0x20 SWAP1 DIV DUP2 ADD SWAP3 DUP3 PUSH2 0x73 JUMPI PUSH1 0x0 DUP6 SSTORE PUSH2 0xBA JUMP JUMPDEST DUP3 PUSH1 0x1F LT PUSH2 0x8C JUMPI DUP1 MLOAD PUSH1 0xFF NOT AND DUP4 DUP1 ADD OR DUP6 SSTORE PUSH2 0xBA JUMP JUMPDEST DUP3 DUP1 ADD PUSH1 0x1 ADD DUP6 SSTORE DUP3 ISZERO PUSH2 0xBA JUMPI SWAP2 DUP3 ADD JUMPDEST DUP3 DUP2 GT ISZERO PUSH2 0xB9 JUMPI DUP3 MLOAD DUP3 SSTORE SWAP2 PUSH1 0x20 ADD SWAP2 SWAP1 PUSH1 0x1 ADD SWAP1 PUSH2 0x9E JUMP JUMPDEST JUMPDEST POP SWAP1 POP PUSH2 0xC7 SWAP2 SWAP1 PUSH2 0xCB JUMP JUMPDEST POP SWAP1 JUMP JUMPDEST JUMPDEST DUP1 DUP3 GT ISZERO PUSH2 0xE4 JUMPI PUSH1 0x0 DUP2 PUSH1 0x0 SWAP1 SSTORE POP PUSH1 0x1 ADD PUSH2 0xCC JUMP JUMPDEST POP SWAP1 JUMP JUMPDEST PUSH1 0x0 PUSH1 0x2 DUP3 DIV SWAP1 POP PUSH1 0x1 DUP3 AND DUP1 PUSH2 0x100 JUMPI PUSH1 0x7F DUP3 AND SWAP2 POP JUMPDEST PUSH1 0x20 DUP3 LT DUP2 EQ ISZERO PUSH2 0x114 JUMPI PUSH2 0x113 PUSH2 0x11A JUMP JUMPDEST JUMPDEST POP SWAP2 SWAP1 POP JUMP JUMPDEST PUSH32 0x4E487B7100000000000000000000000000000000000000000000000000000000 PUSH1 0x0 MSTORE PUSH1 0x22 PUSH1 0x4 MSTORE PUSH1 0x24 PUSH1 0x0 REVERT JUMPDEST PUSH2 0x485 DUP1 PUSH2 0x158 PUSH1 0x0 CODECOPY PUSH1 0x0 RETURN INVALID PUSH1 0x80 PUSH1 0x40 MSTORE CALLVALUE DUP1 ISZERO PUSH2 0x10 JUMPI PUSH1 0x0 DUP1 REVERT JUMPDEST POP PUSH1 0x4 CALLDATASIZE LT PUSH2 0x41 JUMPI PUSH1 0x0 CALLDATALOAD PUSH1 0xE0 SHR DUP1 PUSH4 0x20890FF6 EQ PUSH2 0x46 JUMPI DUP1 PUSH4 0x60AC40F0 EQ PUSH2 0x62 JUMPI DUP1 PUSH4 0xD84B628A EQ PUSH2 0x80 JUMPI JUMPDEST PUSH1 0x0 DUP1 REVERT JUMPDEST PUSH2 0x60 PUSH1 0x4 DUP1 CALLDATASIZE SUB DUP2 ADD SWAP1 PUSH2 0x5B SWAP2 SWAP1 PUSH2 0x2CD JUMP JUMPDEST PUSH2 0x9E JUMP JUMPDEST STOP JUMPDEST PUSH2 0x6A PUSH2 0xB4 JUMP JUMPDEST PUSH1 0x40 MLOAD PUSH2 0x77 SWAP2 SWAP1 PUSH2 0x353 JUMP JUMPDEST PUSH1 0x40 MLOAD DUP1 SWAP2 SUB SWAP1 RETURN JUMPDEST PUSH2 0x88 PUSH2 0x146 JUMP JUMPDEST PUSH1 0x40 MLOAD PUSH2 0x95 SWAP2 SWAP1 PUSH2 0x353 JUMP JUMPDEST PUSH1 0x40 MLOAD DUP1 SWAP2 SUB SWAP1 RETURN JUMPDEST DUP2 DUP2 PUSH1 0x0 SWAP2 SWAP1 PUSH2 0xAF SWAP3 SWAP2 SWAP1 PUSH2 0x1D4 JUMP JUMPDEST POP POP POP JUMP JUMPDEST PUSH1 0x60 PUSH1 0x0 DUP1 SLOAD PUSH2 0xC3 SWAP1 PUSH2 0x3C4 JUMP JUMPDEST DUP1 PUSH1 0x1F ADD PUSH1 0x20 DUP1 SWAP2 DIV MUL PUSH1 0x20 ADD PUSH1 0x40 MLOAD SWAP1 DUP2 ADD PUSH1 0x40 MSTORE DUP1 SWAP3 SWAP2 SWAP1 DUP2 DUP2 MSTORE PUSH1 0x20 ADD DUP3 DUP1 SLOAD PUSH2 0xEF SWAP1 PUSH2 0x3C4 JUMP JUMPDEST DUP1 ISZERO PUSH2 0x13C JUMPI DUP1 PUSH1 0x1F LT PUSH2 0x111 JUMPI PUSH2 0x100 DUP1 DUP4 SLOAD DIV MUL DUP4 MSTORE SWAP2 PUSH1 0x20 ADD SWAP2 PUSH2 0x13C JUMP JUMPDEST DUP3 ADD SWAP2 SWAP1 PUSH1 0x0 MSTORE PUSH1 0x20 PUSH1 0x0 KECCAK256 SWAP1 JUMPDEST DUP2 SLOAD DUP2 MSTORE SWAP1 PUSH1 0x1 ADD SWAP1 PUSH1 0x20 ADD DUP1 DUP4 GT PUSH2 0x11F JUMPI DUP3 SWAP1 SUB PUSH1 0x1F AND DUP3 ADD SWAP2 JUMPDEST POP POP POP POP POP SWAP1 POP SWAP1 JUMP JUMPDEST PUSH1 0x0 DUP1 SLOAD PUSH2 0x153 SWAP1 PUSH2 0x3C4 JUMP JUMPDEST DUP1 PUSH1 0x1F ADD PUSH1 0x20 DUP1 SWAP2 DIV MUL PUSH1 0x20 ADD PUSH1 0x40 MLOAD SWAP1 DUP2 ADD PUSH1 0x40 MSTORE DUP1 SWAP3 SWAP2 SWAP1 DUP2 DUP2 MSTORE PUSH1 0x20 ADD DUP3 DUP1 SLOAD PUSH2 0x17F SWAP1 PUSH2 0x3C4 JUMP JUMPDEST DUP1 ISZERO PUSH2 0x1CC JUMPI DUP1 PUSH1 0x1F LT PUSH2 0x1A1 JUMPI PUSH2 0x100 DUP1 DUP4 SLOAD DIV MUL DUP4 MSTORE SWAP2 PUSH1 0x20 ADD SWAP2 PUSH2 0x1CC JUMP JUMPDEST DUP3 ADD SWAP2 SWAP1 PUSH1 0x0 MSTORE PUSH1 0x20 PUSH1 0x0 KECCAK256 SWAP1 JUMPDEST DUP2 SLOAD DUP2 MSTORE SWAP1 PUSH1 0x1 ADD SWAP1 PUSH1 0x20 ADD DUP1 DUP4 GT PUSH2 0x1AF JUMPI DUP3 SWAP1 SUB PUSH1 0x1F AND DUP3 ADD SWAP2 JUMPDEST POP POP POP POP POP DUP2 JUMP JUMPDEST DUP3 DUP1 SLOAD PUSH2 0x1E0 SWAP1 PUSH2 0x3C4 JUMP JUMPDEST SWAP1 PUSH1 0x0 MSTORE PUSH1 0x20 PUSH1 0x0 KECCAK256 SWAP1 PUSH1 0x1F ADD PUSH1 0x20 SWAP1 DIV DUP2 ADD SWAP3 DUP3 PUSH2 0x202 JUMPI PUSH1 0x0 DUP6 SSTORE PUSH2 0x249 JUMP JUMPDEST DUP3 PUSH1 0x1F LT PUSH2 0x21B JUMPI DUP1 CALLDATALOAD PUSH1 0xFF NOT AND DUP4 DUP1 ADD OR DUP6 SSTORE PUSH2 0x249 JUMP JUMPDEST DUP3 DUP1 ADD PUSH1 0x1 ADD DUP6 SSTORE DUP3 ISZERO PUSH2 0x249 JUMPI SWAP2 DUP3 ADD JUMPDEST DUP3 DUP2 GT ISZERO PUSH2 0x248 JUMPI DUP3 CALLDATALOAD DUP3 SSTORE SWAP2 PUSH1 0x20 ADD SWAP2 SWAP1 PUSH1 0x1 ADD SWAP1 PUSH2 0x22D JUMP JUMPDEST JUMPDEST POP SWAP1 POP PUSH2 0x256 SWAP2 SWAP1 PUSH2 0x25A JUMP JUMPDEST POP SWAP1 JUMP JUMPDEST JUMPDEST DUP1 DUP3 GT ISZERO PUSH2 0x273 JUMPI PUSH1 0x0 DUP2 PUSH1 0x0 SWAP1 SSTORE POP PUSH1 0x1 ADD PUSH2 0x25B JUMP JUMPDEST POP SWAP1 JUMP JUMPDEST PUSH1 0x0 DUP1 DUP4 PUSH1 0x1F DUP5 ADD SLT PUSH2 0x28D JUMPI PUSH2 0x28C PUSH2 0x42A JUMP JUMPDEST JUMPDEST DUP3 CALLDATALOAD SWAP1 POP PUSH8 0xFFFFFFFFFFFFFFFF DUP2 GT ISZERO PUSH2 0x2AA JUMPI PUSH2 0x2A9 PUSH2 0x425 JUMP JUMPDEST JUMPDEST PUSH1 0x20 DUP4 ADD SWAP2 POP DUP4 PUSH1 0x1 DUP3 MUL DUP4 ADD GT ISZERO PUSH2 0x2C6 JUMPI PUSH2 0x2C5 PUSH2 0x42F JUMP JUMPDEST JUMPDEST SWAP3 POP SWAP3 SWAP1 POP JUMP JUMPDEST PUSH1 0x0 DUP1 PUSH1 0x20 DUP4 DUP6 SUB SLT ISZERO PUSH2 0x2E4 JUMPI PUSH2 0x2E3 PUSH2 0x439 JUMP JUMPDEST JUMPDEST PUSH1 0x0 DUP4 ADD CALLDATALOAD PUSH8 0xFFFFFFFFFFFFFFFF DUP2 GT ISZERO PUSH2 0x302 JUMPI PUSH2 0x301 PUSH2 0x434 JUMP JUMPDEST JUMPDEST PUSH2 0x30E DUP6 DUP3 DUP7 ADD PUSH2 0x277 JUMP JUMPDEST SWAP3 POP SWAP3 POP POP SWAP3 POP SWAP3 SWAP1 POP JUMP JUMPDEST PUSH1 0x0 PUSH2 0x325 DUP3 PUSH2 0x375 JUMP JUMPDEST PUSH2 0x32F DUP2 DUP6 PUSH2 0x380 JUMP JUMPDEST SWAP4 POP PUSH2 0x33F DUP2 DUP6 PUSH1 0x20 DUP7 ADD PUSH2 0x391 JUMP JUMPDEST PUSH2 0x348 DUP2 PUSH2 0x43E JUMP JUMPDEST DUP5 ADD SWAP2 POP POP SWAP3 SWAP2 POP POP JUMP JUMPDEST PUSH1 0x0 PUSH1 0x20 DUP3 ADD SWAP1 POP DUP2 DUP2 SUB PUSH1 0x0 DUP4 ADD MSTORE PUSH2 0x36D DUP2 DUP5 PUSH2 0x31A JUMP JUMPDEST SWAP1 POP SWAP3 SWAP2 POP POP JUMP JUMPDEST PUSH1 0x0 DUP2 MLOAD SWAP1 POP SWAP2 SWAP1 POP JUMP JUMPDEST PUSH1 0x0 DUP3 DUP3 MSTORE PUSH1 0x20 DUP3 ADD SWAP1 POP SWAP3 SWAP2 POP POP JUMP JUMPDEST PUSH1 0x0 JUMPDEST DUP4 DUP2 LT ISZERO PUSH2 0x3AF JUMPI DUP1 DUP3 ADD MLOAD DUP2 DUP5 ADD MSTORE PUSH1 0x20 DUP2 ADD SWAP1 POP PUSH2 0x394 JUMP JUMPDEST DUP4 DUP2 GT ISZERO PUSH2 0x3BE JUMPI PUSH1 0x0 DUP5 DUP5 ADD MSTORE JUMPDEST POP POP POP POP JUMP JUMPDEST PUSH1 0x0 PUSH1 0x2 DUP3 DIV SWAP1 POP PUSH1 0x1 DUP3 AND DUP1 PUSH2 0x3DC JUMPI PUSH1 0x7F DUP3 AND SWAP2 POP JUMPDEST PUSH1 0x20 DUP3 LT DUP2 EQ ISZERO PUSH2 0x3F0 JUMPI PUSH2 0x3EF PUSH2 0x3F6 JUMP JUMPDEST JUMPDEST POP SWAP2 SWAP1 POP JUMP JUMPDEST PUSH32 0x4E487B7100000000000000000000000000000000000000000000000000000000 PUSH1 0x0 MSTORE PUSH1 0x22 PUSH1 0x4 MSTORE PUSH1 0x24 PUSH1 0x0 REVERT JUMPDEST PUSH1 0x0 DUP1 REVERT JUMPDEST PUSH1 0x0 DUP1 REVERT JUMPDEST PUSH1 0x0 DUP1 REVERT JUMPDEST PUSH1 0x0 DUP1 REVERT JUMPDEST PUSH1 0x0 DUP1 REVERT JUMPDEST PUSH1 0x0 PUSH1 0x1F NOT PUSH1 0x1F DUP4 ADD AND SWAP1 POP SWAP2 SWAP1 POP JUMP INVALID LOG2 PUSH5 0x6970667358 0x22 SLT KECCAK256 CODECOPY 0xD1 PUSH25 0xC2591A4CB8B18C8397EE662A5D4B32980FC00383ED7352B38F SDIV PUSH17 0x95C264736F6C63430008070033516D5073 PUSH23 0x364E584B6A6653566B705A38627859654D324754505535 PUSH14 0x744C454641677839365139593144 SELFBALANCE DIFFICULTY PUSH10 0x0 "
		},
		"gasEstimates": {
			"creation": {
				"codeDepositCost": "231400",
				"executionCost": "infinite",
				"totalCost": "infinite"
			},
			"external": {
				"getMemeHash()": "infinite",
				"memeHash()": "infinite",
				"updateMemeHash(string)": "infinite"
			}
		},
		"methodIdentifiers": {
			"getMemeHash()": "60ac40f0",
			"memeHash()": "d84b628a",
			"updateMemeHash(string)": "20890ff6"
		}
	},
	"abi": [
		{
			"inputs": [],
			"name": "getMemeHash",
			"outputs": [
				{
					"internalType": "string",
					"name": "",
					"type": "string"
				}
			],
			"stateMutability": "view",
			"type": "function"
		},
		{
			"inputs": [],
			"name": "memeHash",
			"outputs": [
				{
					"internalType": "string",
					"name": "",
					"type": "string"
				}
			],
			"stateMutability": "view",
			"type": "function"
		},
		{
			"inputs": [
				{
					"internalType": "string",
					"name": "_memeHash",
					"type": "string"
				}
			],
			"name": "updateMemeHash",
			"outputs": [],
			"stateMutability": "nonpayable",
			"type": "function"
		}
	]
}